:100000000C943B090C9457090C9457090C9457090C
:100010000C9457090C9457090C9457090C945709E0
:100020000C9457090C9457090C94A6100C940211C7
:100030000C9457090C9457090C9457090C945709C0
:100040000C9457090C9457090C9457090C945709B0
:100050000C9457090C9457090C9457090C945709A0
:100060000C9457090C9457090C9457090C94570990
:100070000C9457090C9457090C9457090C94570980
:100080000C9457090C9457090C9457090C94570970
:100090000C9457090C9457090C9457090C94570960
:1000A0000C9457090C9457090C945709560E5E0E80
:1000B000640E6A0E700E760E7C0E820EB10EB30EBA
:1000C000B50EB70EB90EBB0EBD0EBF0E0000670F0A
:1000D0001E0F1E0F1E0F1E0F1E0F1E0F1E0F1E0FB8
:1000E0001E0F1E0F1E0F00001E0F1E0F950F1E0F5E
:1000F0001E0F00000000000000001E0F1E0F1E0F4C
:100100001E0F950FA40F1E0F1E0F1E0F1E0F1E0F8A
:10011000950F1E0F1E0F1E0F1E0F1E0F1E0FA40F7A
:100120001E0F1E0F1E0F1E0F1E0F1E0F00000000C1
:100130001E0F1E0F1E0F1E0F1E0F1E0F950F1E0FE0
:100140001E0F1E0F1E0F1E0F950F1E0F1E0F1E0FD0
:100150001E0F1E0F1E0F1E0F1E0F1E0F1E0F1E0F37
:100160001E0F1E0F1E0F00001E0F1E0F1E0F1E0F54
:100170001E0F1E0F00004C0F4C0F4C0F4C0F9F0F0B
:100180009A0F00004C0F4C0F1E0F4C0F4C0F00002D
:100190004C0F4C0F4C0F4C0F4C0F4C0F4C0F4C0F87
:1001A0004C0F1E0F1E0F1E0F1E0F4C0F4C0F1E0F5D
:1001B000950F950F950F1E0F6B0F6B0F950F1E0F61
:1001C000950F950F1E0F1E0F4C0F950F950F950F46
:1001D0001E0F1E0F000000001E0F1E0F1E0F1E0F11
:1001E000950F1E0F4C0F1E0F1E0F950F950F950F9D
:1001F0001E0F4C0F0000950F1E0F950F1E0F1E0FA8
:1002000000001E0F1E0F1E0F1E0F1E0F1E0F1E0FB3
:100210001E0F1E0F1E0F1E0F1E0F1E0F00000000D0
:1002200000000000000000000000000000000000CE
:1002300000000000000000000000000000000000BE
:1002400000000000000000000000000000000000AE
:10025000000000000000000000000000000000009E
:10026000000000000000000000000000000000008E
:10027000000000000000000000000000000000007E
:10028000000000000000000000000000000000006E
:10029000000000000000000000000000000000005E
:1002A000000000000000000000000000000000004E
:1002B000000000000000000000000000000000003E
:1002C0000000000000004C0F4C0F4C0F4C0F4C0F67
:1002D0004C0F4C0F4C0F4C0F1E0F4C0F4C0F0000CF
:1002E0004C0F1E0F4C0F4C0F4C0F4C0F4C0F4C0F64
:1002F0004C0F4C0F4C0F1E0F1E0F4C0F4C0F4C0F82
:100300004C0F4C0F4C0F4C0F4C0F4C0F4C0F1E0F43
:100310001E0F1E0F1E0F4C0F4C0F4C0F4C0F4C0F8F
:100320004C0F4C0F000000004C0F1E0F1E0F1E0F35
:100330001E0F4C0F4C0F4C0F4C0F4C0F4C0F4C0F13
:100340004C0F4C0F4C0F1E0F1E0F1E0F1E0F4C0F8D
:100350004C0F4C0F4C0F4C0F4C0F4C0F4C0F000020
:100360004C0F00001E0F1E0F1E0F4C0F0000000050
:10037000000000000000690F6B0F7D0F7F0F000071
:10038000000000000000000000000000000000006D
:1003900000001D1000000000000000000000000030
:1003A000000000000000000000000000650F670F63
:1003B00000000000000000000000790F7B0F171004
:1003C000000000004C0F890F8B0F000000000000A0
:1003D00000000000750F770FF80F00000000260FD7
:1003E000850F870F0000000000000000710F730FE1
:1003F000A40F0000000000001E0F810F830F0000FB
:100400000000000000006D0F6F0F000000000000F2
:1004100000000000000000000000000000000000DC
:1004200000000000000000000000000000000000CC
:1004300000000000000000000000000000000000BC
:1004400000000000000000000000000000000000AC
:100750000000000000000000000000000000650F25
:100760001E0F1E0F1E0F1E0F1E0F1E0F1E0F1E0F21
:100770001E0F1E0F1E0F00001E0F1E0F950F1E0FC7
:100780001E0F00000000000000001E0F1E0F1E0FB5
:100790001E0F950FA40F1E0F1E0F1E0F1E0F1E0FF4
:1007A000950F1E0F1E0F1E0F1E0F1E0F1E0FA40FE4
:1007B0001E0F1E0F1E0F1E0F1E0F1E0F000000002B
:1007C0001E0F1E0F1E0F1E0F1E0F1E0F950F1E0F4A
:1007D0001E0F1E0F1E0F1E0F950F1E0F1E0F1E0F3A
:1007E0001E0F1E0F1E0F1E0F1E0F1E0F1E0F1E0FA1
:1007F0001E0F1E0F1E0FF80F1E0F1E0F1E0F1E0FB7
:100800001E0F1E0F00004C0F4C0F4C0F4C0F9F0F74
:100810009A0F670F4C0F4C0F1E0F4C0F4C0F000020
:100820004C0F4C0F4C0F4C0F4C0F4C0F4C0F4C0FF0
:100830004C0F1E0F1E0F1E0F1E0F4C0F4C0F1E0FC6
:10084000950F950F950F1E0F690F690F950F1E0FCE
:10085000950F950F1E0F1E0F4C0F950F950F950FAF
:100860001E0F1E0F000000001E0F1E0F1E0F1E0F7A
:10087000950F1E0F4C0F1E0F950F950F950F950F8F
:100880001E0F4C0F0000950F1E0F950F1E0F1E0F11
:1008900000001E0F1E0F1E0F1E0F1E0F1E0F1E0F1D
:1008A0001E0F1E0F1E0F1E0F1E0F1E0F000000003A
:1008B0000000000000000000000000000000000038
:1008C0000000000000000000000000000000000028
:1008D0000000000000000000000000000000000018
:1008E0000000000000000000000000000000000008
:1008F00000000000000000000000000000000000F8
:1009000000000000000000000000000000000000E7
:1009100000000000000000000000000000000000D7
:1009200000000000000000000000000000000000C7
:1009300000000000000000001D100000000000008A
:1009400000000000000000000000000000000000A7
:100950000000000000004C0F4C0F4C0F4C0F4C0FD0
:100960004C0F4C0F4C0F4C0F1E0F4C0F4C0F000038
:100970004C0F1E0F4C0F4C0F4C0F4C0F4C0F4C0FCD
:100980004C0F4C0F4C0F1E0F1E0F4C0F4C0F4C0FEB
:100990004C0F4C0F4C0F4C0F4C0F4C0F4C0F1E0FAD
:1009A0001E0F1E0F1E0F4C0F4C0F4C0F4C0F4C0FF9
:1009B0004C0F4C0F000000004C0F1E0F1E0F1E0F9F
:1009C0001E0F4C0F4C0F4C0F4C0F4C0F4C0F4C0F7D
:1009D0004C0F4C0F4C0F1E0F1E0F1E0F1E0F4C0FF7
:1009E0004C0F4C0F4C0F4C0F4C0F4C0F4C0F171063
:1009F0004C0F17101E0F1E0F1E0F4C0F0000000093
:100A000000000000000000000000000000000000E6
:100A100000000000000000000000000000000000D6
:100A200000000000000000000000000000000000C6
:100A300000000000000000000000000000000000B6
:100DE0000000000000000000000000000001E22CF4
:100DF000444C434145E728E4E600E035352F300018
:100E00000000005051524F43E11D1B0619052733C6
:100E10000E10363738E52B041516170700000B1196
:100E2000080C123433141A09130A262A0D0F181C41
:100E30002D2E291E1F2021223E0323242526273163
:100E400000000000002B2B00000029000000000023
:100E5000000000000000004A4E4B4D0000342431D9
:100E6000343302022D2D36375D7F001E24272F30AC
:100E700000000B0D0E0F2E81003535312F30010093
:100E800000362D37B480003A3B3C3D3E44453F4060
:100E90004142436600000000000000000000000026
:100EA0000000000000000000000000000000000042
:100EB0000000000000000000000000000000000032
:100EC0000000000000000000000000000000000022
:100ED0000000000000000000000000000000000012
:100EE0000000000000000000000000000000000002
:100EF0000000620000000049000000000000000047
:100F000000375800000000000000000000595A5B44
:100F100058000000000000000000005C5D5E57000B
:100F20000000000000000000005F6061560000004B
:100F3000000000000003000367545500000000009B
:100F400000000000000000000000000000000000A1
:100F50000000000000000000000000000000000091
:100F60000000000000000000000000000000000081
:100F70000000000000000000000000000000000071
:100F80000000000000000000000000000000000061
:100F90000000000000000000000000000000000051
:100FA0000000000000000000000000000000000041
:100FB0000000000000000000000000000000000031
:100FC0000000000000000000000000000000000021
:100FD0000000000000000000000000000000000011
:100FE0000000000000000000000000000000000001
:100FF00000000000000000000000000000000000F1
:1010000000000000000000000000000000000000E0
:1010100000000000000000000000000000000000D0
:1010200000000000000000000000000000000000C0
:1010300000000000000000000000000000000000B0
:1010400000000000000000000000000000000000A0
:101050000000000000000000000000000000000090
:101060000000000000000000000000000000000080
:101070000000000000000000000000000000000070
:101080000000000000000000000000000000000060
:101090000000000000000000000000000000000050
:1010A0000000000000000000000000000000000040
:1010B0000000000000000000000000000000000030
:1010C0000000000000000000000000000000000020
:1010D0000000000000000000000000000000000010
:1010E0000000000000000000000000000000000000
:1010F00000000000000000000000000000000000F0
:1011000000000000000000000000000000000000DF
:1011100000000000000000000000000000000000CF
:1011200000000000000000000000000000000000BF
:1011300000000000000100005C121200020000C963
:10114000113B00210000DB1109002200001D123FAD
:1011500000210100F411090022010004121900030A
:101160000000C5110401030904AB111802030904AE
:1011700073113636034500720067006F0044006F3C
:1011800000780020006500720067006F006E006F3D
:10119000006D006900630020006B0065007900624B
:1011A000006F006100720064000000180375006E9B
:1011B00000730070006500630069006600690065E7
:1011C00000640000000403090409023B000201005E
:1011D000C0320904000001030101000921110100CE
:1011E00001223F000705810308000A0904010001EC
:1011F00003000000092111010001221900070582E6
:101200000308000A050C0901A10185031501269CAC
:101210000219012A9C02751095018100C00501097F
:1012200006A10175019508050719E029E7150025B4
:10123000018102950175088103950575010508195D
:10124000012905910295017503910395067508150D
:101250000025680507190029688100C012010002F5
:1012600000000020501D286000010102000101C1A2
:101270000601C106000011241FBECFEFDAE0DEBF79
:10128000CDBF11E0A0E0B1E0E2E6F5E202C00590DA
:101290000D92AA31B107D9F712E0AAE1B1E001C07D
:1012A0001D92AF3CB107E1F7D5D00C94AF120C946E
:1012B000000020911A01281760F030E0281B310946
:1012C000F901EE0FFF1FE20FF31FE757FD4F80817B
:1012D000089580E0089520911A01281760F030E009
:1012E000281B3109F901EE0FFF1FE20FF31FE7572B
:1012F000FD4F8281089580E00895E1E0F1E021E072
:1013000030E09191911117C0F901E050FF4F91E049
:10131000908340911A014F5F40931A0150E0FA0107
:10132000EE0FFF1FE40FF51FE757FD4F808321836A
:101330006283822F08952F5F3F4F2431310509F7D3
:1013400080E00895CF93DF9360911A0191E0C82F58
:10135000D0E0C050DF4F6917B0F1292F30E0F9011C
:10136000EE0FFF1FE20FF31FE757FD4F21812813F8
:1013700028C0292F30E09617C1F0A9014F5F5F4FB9
:10138000DA01AA0FBB1FA40FB51FA757BD4F4C9181
:10139000F901EE0FFF1FE20FF31FE757FD4F4083E8
:1013A00011962C9121839F5FE4CFF901EE0FFF1F6F
:1013B000E20FF31FE757FD4F1082118218826FEF83
:1013C000690F9F5FC8CF60931A01DF91CF91089595
:1013D0002091C7028091CA0290918802E091870211
:1013E000222381F02EE0E29FF001112424E5929F58
:1013F000E00DF11D1124E80FF11DEE0FFF1FE45A5F
:10140000F84F0FC02EE0E29FF001112424E5929FD7
:10141000E00DF11D1124E80FF11DEE0FFF1FE45345
:10142000FF4F85919491009711F0FC0109958091EF
:101430001A01282F30E0F901EE0FFF1FE20FF31F12
:10144000E757FD4F9281923021F490913202911131
:1014500079CF0895E0D08CE090E09093890080935C
:10146000880090938B0080938A0090938D008093E6
:101470008C00259A269A279A17D62DD68823E9F329
:101480008FE790E090938900809388002FE732E403
:1014900040E1215030404040E1F700C0000090930F
:1014A0008B0080938A002FE732E440E121503040E6
:1014B0004040E1F700C0000090938D0080938C00C5
:1014C0002FE732E440E1215030404040E1F700C0D6
:1014D000000025982698279890938900809388008B
:1014E00090938B0080938A0090938D0080938C0062
:1014F0000EE0809114019091150120911601309118
:1015000017013093150120931401909317018093D4
:1015100016018DD01092310280913102863008F090
:1015200058C01092C802F090C802109131028DE0AC
:101530008F1508F44AC0E0911601F0911701019F40
:10154000C00111248F0D911DE80FF91F20812093F8
:10155000C702E0911401F0911501E80FF91F3081E5
:101560003093C502231759F1EC01CD5CDD4F2223E6
:1015700041F080E09EDE8093880288831092C6024C
:1015800009C0288120938802FC01E55EFE4F80811E
:101590008093C60210938702F092CA021092C90289
:1015A00017DF8091C802E09131020E9FF0011124F3
:1015B000E80FF11DE55EFE4F8091C60280838091A9
:1015C000C8028F5F8093C802AECF1F5F10933102B5
:1015D000A3CF84D5A0D78FE19EE40197F1F700C097
:1015E00000008091270280FF02C0259A01C0259843
:1015F0008091270281FF02C0269A01C0269880911F
:10160000270282FF02C0279A01C0279880912702F3
:10161000809127026ECF1DD0811105C032D2882360
:1016200021F082E0089581E0089580E00895CF934D
:10163000DF93EC01D7D0811106C0CE014DD28823B3
:1016400021F082E003C081E001C080E0DF91CF9112
:101650000895E1E6F0E080E88083108256985E9875
:1016600024982C9825982698279889EA80938000BA
:1016700089E080938100ADD23F9885E08A95F1F7AB
:101680000000579885E08A95F1F70000549885E0AE
:101690008A95F1F70000559885E08A95F1F70000EA
:1016A0006E9885E08A95F1F70000479A85E08A9563
:1016B000F1F700005F9A85E08A95F1F700005C9AE7
:1016C00085E08A95F1F700005D9A85E08A95F1F74B
:1016D0000000769A85E08A95F1F70000879885E00A
:1016E0008A95F1F70000869885E08A95F1F7000069
:1016F000859885E08A95F1F70000849885E08A95C1
:10170000F1F70000819885E08A95F1F70000809854
:1017100085E08A95F1F70000209885E08A95F1F739
:101720000000219885E08A95F1F70000229885E075
:101730008A95F1F70000239885E08A95F1F700007B
:10174000529885E08A95F1F70000539885E08A95D4
:10175000F1F700003E9885E08A95F1F700008F9A36
:1017600085E08A95F1F700008E9A85E08A95F1F779
:1017700000008D9A85E08A95F1F700008C9A85E04B
:101780008A95F1F70000899A85E08A95F1F70000C3
:10179000889A85E08A95F1F70000289885E08A9577
:1017A000F1F70000299885E08A95F1F700002A9862
:1017B00085E08A95F1F700002B9885E08A95F1F78E
:1017C00000005A9885E08A95F1F700005B9885E063
:1017D0008A95F1F70000469885E08A95F1F70000B8
:1017E00080E00895CF93DF93FC01209A85E08A95ED
:1017F000F1F700008FB18095881F8827881F8783A5
:101800009FB181E096FB992790F99827958B9FB11E
:1018100095FB992790F9982793A39FB19295917082
:10182000982791AB9FB196959170982797AF9FB1EC
:10183000DF01AA5BBF4F9170982717969C9317976B
:10184000209895E09A95F1F70000219A95E09A95F5
:10185000F1F700009FB19095991F9927991F9087E4
:101860009FB196FB992790F99827968B9FB195FB8E
:10187000992790F9982794A39FB1929591709827F2
:1018800092AB9FB1EF01C05CDF4F969591709827A6
:1018900098839FB19170982718969C9318972198D8
:1018A00095E09A95F1F70000229A95E09A95F1F764
:1018B00000009FB19095991F9927991F91879FB11B
:1018C00096FB992790F99827978B9FB195FB9927BD
:1018D00090F9982795A39FB192959170982793AB13
:1018E0009FB1EF01CF5BDF4F96959170982798835A
:1018F0009FB19170982719969C931997229895E01B
:101900009A95F1F70000239A95E09A95F1F7000077
:101910009FB19095991F9927991F92879FB196FB28
:10192000992790F99827908F9FB195FB992790F967
:10193000982796A39FB192959170982794AB9FB1E9
:10194000EF01CE5BDF4F96959170982798839FB1FA
:10195000917098271A969C931A97239895E09A95D8
:10196000F1F70000529A95E09A95F1F700009FB1C7
:101970009095991F9927991F93879FB196FB992757
:1019800090F99827918F9FB195FB992790F9982707
:1019900097A39FB192959170982795AB9FB1EF0156
:1019A000CD5BDF4F96959170982798839FB191708A
:1019B00098271B969C931B97529895E09A95F1F760
:1019C0000000539A95E09A95F1F700009FB1909529
:1019D000991F9927991F94879FB196FB992790F992
:1019E0009827928F9FB195FB992790F9982790A7F8
:1019F0009FB192959170982796AB9FB1EF01CC5B08
:101A0000DF4F96959170982798839FB19170982792
:101A10001C969C931C97539895E09A95F1F70000BB
:101A20003E9A95E09A95F1F700009FB19095991F25
:101A30009927991F95879FB196FB992790F9982729
:101A4000938F9FB195FB992790F9982791A79FB104
:101A500092959170982797AB9FB1EB5BFF4F96954E
:101A60009170982790839FB1917098271D969C93B1
:101A70003E9885E08A95F1F7000080E0DF91CF91F4
:101A80000895CF93AFD080E4CCD0C82F811120C06F
:101A900080E0C7D080E8C5D08FEFC3D0BAD0A2D045
:101AA00080E4BFD0C82F811113C08CE0BAD080E889
:101AB000B8D08FEFB6D0ADD095D080E4B2D0C82FDB
:101AC000811106C084E1ADD08FEFABD08FEFA9D0EC
:101AD000A0D08C2FCF9108958F929F92BF92CF92DA
:101AE000DF92EF92FF920F931F93CF93DF931F929A
:101AF000CDB7DEB77C01C5DFB82E882369F096E04C
:101B0000F70187E011928150E9F791508EE0E80EDD
:101B1000F11C9111F5CF4FC000E010E0CC24C3942C
:101B2000D12C60D080E47DD082E17BD0C601002E34
:101B300001C0880F0A94EAF7809573D06AD052D01A
:101B400080E46FD083E16DD04DD081E46AD0CE01C6
:101B5000019685D05ED08981882E912C60E070E05E
:101B600045E050E0D701A00FB11FFD01E60FF71FC0
:101B70009401042E02C0359527950A94E2F721704E
:101B8000332781E028272170208341505109625F6B
:101B90007F4F4F3F8FEF580741F70F5F1F4F0730C1
:101BA000110509F0BECF1ED080E43BD082E139D0D0
:101BB0008FEF37D02ED08B2D0F90DF91CF911F91CB
:101BC0000F91FF90EF90DF90CF90BF909F908F90FC
:101BD0000895E9EBF0E080818C7F808388E4809336
:101BE000B800089584EA8093BC008091BC0087FF10
:101BF000FCCF8091B900887F883049F08091B9008E
:101C0000887F803121F08091B900887F089580E03D
:101C1000089584E98093BC008091BC0084FDFCCFD2
:101C200008958093BB0084E88093BC008091BC0041
:101C300087FFFCCF8091B900887F883171F0809157
:101C4000B900887F883249F08091B900887F80345C
:101C500021F08091B900887F089580E0089524ECF8
:101C60002093BC002091BC0027FFFCCF2091BB003B
:101C7000FC0120838091B900887F803521F080911C
:101C8000B900887F089580E00895962F662309F4AF
:101C90005AC0462F50E0FA01E05EF109E830F10544
:101CA000B8F5EA5AFF4F90912F0253C4882311F0E0
:101CB000916001C09E7F90932F020895882311F0B8
:101CC0009260F9CF9D7FF7CF882311F09460F3CF16
:101CD0009B7FF1CF882311F09860EDCF977FEBCFFA
:101CE000882311F09061E7CF9F7EE5CF882311F024
:101CF0009062E1CF9F7DDFCF882311F09064DBCF2E
:101D00009F7BD9CF882311F09068D5CF9F77D3CF11
:101D1000E9E2F2E020E030E04081882339F041112F
:101D20000CC0F901E75DFD4F90830895491305C08C
:101D3000F901E75DFD4F108208952F5F3F4F319607
:101D40002630310549F70895482F50E0FA01E05E4A
:101D5000F109E830F105A8F4E25AFF4F90912F0203
:101D6000F8C390FD19C091FD17C092FD15C093FDF9
:101D700013C094FD11C095FD0FC096FD0DC097FDD9
:101D80000BC0E9E2F2E09191981731F092E0EF3266
:101D9000F907C9F780E0089581E00895CF93DF93B4
:101DA000C82FD0E0C95EDD4F8881CCDA1882DF9180
:101DB000CF9108951F93CF93DF939091CA02209102
:101DC0008802E09187023EE0E39FF001112434E5B0
:101DD000239FE00DF11D1124E90FF11DE451F24F95
:101DE0001491C82FD0E0C95EDD4F8881ABDA80E066
:101DF00072DA8150823018F480E05BDAA3DA60E0B6
:101E0000812F7BDA8883DF91CF911F910895809194
:101E1000CA0290918802E09187022EE0E29FF001D1
:101E2000112424E5929FE00DF11D1124E80FF11D0E
:101E3000E451F24F64918091C70227CF8091C6028E
:101E4000811103C081E080933202E1CFCF93DF9311
:101E50001F92CDB7DEB78091CA0290918802E091BF
:101E600087022EE0E29FF001112424E5929FE00D0D
:101E7000F11D1124E80FF11DE451F24F6491862FFA
:101E8000698362DF6981882311F080E001C081E00D
:101E90000F90DF91CF91F9CE81E08093C6028091BF
:101EA000C9028F5F8093C90204DA809388029091FF
:101EB000CA02E09187022EE0E29FF0011124E90FAF
:101EC000F11DED5CFD4F808383CA81E073CF81E01B
:101ED00065CF82E06FCF82E061CF83E06BCF83E09C
:101EE0005DCF84E067CF84E059CF85E063CF85E0A4
:101EF00055CF86E05FCF86E051CF87E05BCF87E0AC
:101F00004DCF88E057CF88E049CF89E053CF89E0B3
:101F100045CF8AE04FCF8AE041CF63E881E0B5DE6C
:101F2000DDD063E880E0B1DED9C061EE8091C70208
:101F3000ACDE84CF66EE8091C702A7DE7FCF60EE75
:101F40008091C702A2DE7ACF8091CA029091880266
:101F5000E09187022EE0E29FF001112424E5929F98
:101F6000E00DF11D1124E80FF11DE451F24F6491D1
:101F70008091C702811105C09091240291509093E5
:101F8000240283DE80912402813041F58091C702D2
:101F9000882321F181EED8DE8093230285EED4DE02
:101FA0008093220261EE80E070DE65EE80E06DDEFF
:101FB00069E381E06ADE92D069E380E066DE8ED07C
:101FC00080912302882319F061EE81E05EDE80912A
:101FD0002202882319F065EE81E057DE8091C70266
:101FE000882329F0809124028F5F80932402089532
:101FF000CF938091CA0290918802E09187022EE0EF
:10200000E29FF001112424E5929FE00DF11D1124BF
:10201000E80FF11DE451F24FC4918091250292D94D
:1020200060E08C2F6AD980932502CF9176CF809182
:10203000250288D91092250270CFF89481E0809310
:10204000E00080E28093D800E9ECF0E010828FE1BC
:102050009EE40197F1F700C000001DBA10926800DD
:102060001CBC10BE1FBA10927A0010926E00109223
:102070006F0010927100109272001082ECEBF0E091
:10208000108214B817B81AB81DB810BA108215B853
:1020900018B81BB81EB811BA0C94003F089580916F
:1020A000E80080FFFCCF089581E08093D70080EAAC
:1020B0008093D80082E189BD09B400FEFDCF80E99C
:1020C0008093D8001092E000109230028CE0809350
:1020D000E200789408958091300208958091300252
:1020E000811102C08FEF08958FB7F89491E090931B
:1020F000E9009091E4009E5C21E03091E80035FD1C
:102100000EC08FBF80913002882361F38091E4007C
:10211000891741F38FB7F8942093E900EECF90919F
:102120002F029093F1001092F100E9E2F2E0919118
:102130009093F10092E0EF32F907C9F79AE3909398
:10214000E800109228028FBF80E008951F920F923E
:102150000FB60F9211248F939F93EF93FF9380916B
:10216000E1001092E10083FF0FC01092E90091E0BE
:102170009093EB001092EC0092E29093ED0098E0C7
:102180009093F0001092300282FF33C080913002B1
:10219000882379F180911801882359F180912602D2
:1021A0008F5F80932602837021F581E08093E900A0
:1021B0008091E80085FF1DC0809128028F5F809389
:1021C000280290911801891314C01092280280915E
:1021D0002F028093F1001092F100E9E2F2E0819188
:1021E0008093F10082E0EF32F807C9F78AE3809329
:1021F000E800FF91EF919F918F910F900FBE0F908C
:102200001F9018951F920F920FB60F921124EF9204
:10221000FF920F931F932F933F934F935F936F936F
:102220007F938F939F93AF93BF93EF93FF93CF933E
:10223000DF931F92CDB7DEB71092E9008091E800DE
:1022400083FF21C19091F1008091F1003091F10064
:102250002091F100E32EF12CF22A0091F10020915F
:10226000F10010E0122B2091F1006091F10032EFAB
:102270003093E800863009F046C039E084E391E10C
:10228000FC01459154914E155F0539F4FC013296DD
:10229000459154914017510721F00796315081F72D
:1022A000F2C0FC01349645915491FC01369684911C
:1022B00030E0362B2F3F310519F010F02FEF30E0D2
:1022C000281708F4822F3EEF9091E800292F2570FF
:1022D000D9F392FDDBC0982F813208F090E2FA0129
:1022E000292F222331F064916093F100215031961F
:1022F000F8CF490F511D891B3093E8008111E4CFBD
:10230000903211F3C3C0853049F48EEF8093E8001A
:10231000C6DE8E2D80688093E300B8C0893041F519
:10232000911146C0E09230028EEF8093E80041E0C8
:102330008EE692E14093E9009C012F5F3F4FFC0144
:1023400054915093EB00552361F0F90124912093AF
:10235000EC009C012D5F3F4FFC01329684918093ED
:10236000ED004F5F453011F0C901E4CF8EE141C06F
:10237000883039F4903809F041C091DE8091300204
:1023800060C0811115C099838ADE9981923851F419
:102390000093E9008091EB0085FB882780F910927B
:1023A000E90001C080E08093F1001092F10067C065
:1023B000282F2D7F213011F5923001F5EF2809F0FB
:1023C00062C00F779FEF900F943008F05CC09EEFD3
:1023D0009093E8000093E900833009F454C089E148
:1023E0008093EB0081E090E0002E01C0880F0A94FA
:1023F000EAF78093EA001092EA0048C0012B09F046
:1024000042C0913A09F5813089F449DE80912F026A
:102410008093F1001092F100E9E2F2E08191809363
:10242000F10082E0EF32F807C9F729C0823021F4C9
:1024300036DE8091180105C0833029F530DE8091A9
:1024400019018093F1001BC09132E9F4893061F4E5
:102450008091E80082FFFCCF8091F10080932702F9
:102460008BEF8093E8000BC08A3029F4F0921801BA
:102470001092280204C08B3031F4E09219018EEFE3
:102480008093E80003C081E28093EB000F90DF911E
:10249000CF91FF91EF91BF91AF919F918F917F91DC
:1024A0006F915F914F913F912F911F910F91FF90ED
:1024B000EF900F900FBE0F901F90189590913002E3
:1024C000911102C08FEF08959FB7F89422E02093F6
:1024D000E9002091E4002E5C32E04091E80045FDE7
:1024E0000EC09FBF90913002992361F39091E40058
:1024F000921741F39FB7F8943093E900EECF8093A1
:10250000F1006093F1007093F1008AE38093E8009A
:102510009FBF80E008956091CB027091CC028091C2
:10252000CD029091CE026817790781F083E0C6DF73
:10253000992787FD9095009759F42091CB0230910F
:10254000CC023093CE022093CD02089580E090E03B
:102550000895EE0FFF1F0590F491E02D0994F89473
:02256000FFCFAB
:102562000100000000000000000000000000000068
:0A257200000000006F01C3017D01AD
:00000001FF
