:100000000C942B090C9447090C9447090C9447094C
:100010000C9447090C9447090C9447090C94470920
:100020000C9447090C9447090C9461100C94BB1074
:100030000C9447090C9447090C9447090C94470900
:100040000C9447090C9447090C9447090C944709F0
:100050000C9447090C9447090C9447090C944709E0
:100060000C9447090C9447090C9447090C944709D0
:100070000C9447090C9447090C9447090C944709C0
:100080000C9447090C9447090C9447090C944709B0
:100090000C9447090C9447090C9447090C944709A0
:1000A0000C9447090C9447090C9447090000E40E8E
:1000B000E40EE40EE40EE40EE40EE40EE40EE40EB0
:1000C000E40EE40EE40E0000E40EE40EE40EE40E92
:1000D000E40E0000000000000000E40EE40EE40E58
:1000E000E40EE40E8E0FE40EE40EE40EE40EE40ED5
:1000F000290F290FE40EE40EE40EE40EE40E8E0F39
:10010000E40EE40EE40EE40EE40EE40E0000000043
:10011000E40EE40EE40EE40EE40EE40EE40EE40E4F
:10012000E40EE40EE40EE40E890F890FE40EE40EF3
:10013000E40EE40EE40EE40EE40EE40EE40EE40E2F
:10014000E40EE40E00000000E40EE40EE40EE40E03
:10015000E40EE40E00000D0F0D0F0D0F0D0F0D0F2F
:100160000D0F0D0F0D0F0D0F0D0F0D0F0D0F0000CB
:100170000D0F0D0F0D0F0D0F0D0F0D0F0D0F0D0F9F
:100180000D0F0D0F0D0F0D0F0D0F0D0F0D0FE40EB9
:10019000E40EE40EE40E890F2D0F2D0F890FE40EEF
:1001A000E40EE40EE40EE40E0D0FE40EE40EE40E95
:1001B000E40E890F00000000E40EE40E890F890FA1
:1001C000890FE40E0D0F890F890FE40EE40E000075
:1001D000E40E0D0F0000E40E890F890FE40EE40E0B
:1001E0000000E40EE40EE40EE40EE40E0000E40E63
:1001F000E40EE40EE40EE40EE40EE40E0000000053
:1002000000000000000000000000000000000000EE
:1002100000000000000000000000000000000000DE
:1002200000000000000000000000000000000000CE
:1002300000000000000000000000000000000000BE
:1002400000000000000000000000000000000000AE
:10025000000000000000000000000000000000009E
:10026000000000000000000000000000000000008E
:10027000000000000000000000000000000000007E
:10028000000000000000000000000000000000006E
:10029000000000000000000000000000000000005E
:1002A0000000000000000D0F0D0F0D0F0D0F0D0FC2
:1002B0000D0F0D0F0D0F0D0FE40E0D0F0D0F0000A4
:1002C0000D0FE40E0D0F0D0F0D0F0D0F0D0F0D0F78
:1002D0000D0F0D0F0D0FE40EE40E0D0F0D0F0D0F92
:1002E0000D0F0D0F0D0F0D0F0D0F0D0F0D0FE40E58
:1002F000E40EE40EE40E0D0F0D0F0D0F0D0F0D0F9C
:100300000D0F0D0F000000000D0FE40EE40EE40EC3
:10031000E40E0D0F0D0F0D0F0D0F0D0F0D0F0D0F27
:100320000D0F0D0F0D0FE40EE40EE40EE40E0D0F95
:100330000D0F0D0F0D0F0D0F0D0F0D0F0D0F0000F9
:100340000D0F0000E40EE40EE40E0D0F000000009F
:100350000000000000002B0F2D0F3F0F410F000089
:10036000000000000000000000000000000000008D
:1003700000004F0F0000000000000000000000001F
:10038000000000000000000000000000270F290FFF
:10039000000000000000000000003B0F3D0F0410B3
:1003A000000000000D0F4B0F4D0F0000000000007B
:1003B00000000000370F390FE30F00000000EC0EC3
:1003C000470F490F0000000000000000330F350FF9
:1003D0008E0F000000000000E40E430F450F0000E8
:1003E0000000000000002F0F310F0000000000008F
:1003F00000000000000000000000000000000000FD
:1004000000000000000000000000000000000000EC
:1004100000000000000000000000000000000000DC
:1004200000000000000000000000000000000000CC
:100730000000000000000000000000000000E40EC7
:10074000E40EE40EE40EE40EE40EE40EE40EE40E19
:10075000E40EE40EE40E0000E40EE40EE40EE40EFB
:10076000E40E0000000000000000E40EE40EE40EC1
:10077000E40EE40E8E0FE40EE40EE40EE40EE40E3E
:10078000270F270FE40EE40EE40EE40EE40E8E0FA6
:10079000E40EE40EE40EE40EE40EE40E00000000AD
:1007A000E40EE40EE40EE40EE40EE40EE40EE40EB9
:1007B000E40EE40EE40EE40E890F890FE40EE40E5D
:1007C000E40EE40EE40EE40EE40EE40EE40EE40E99
:1007D000E40EE40E270FE30FE40EE40EE40EE40E45
:1007E000E40EE40E00000D0F0D0F0D0F0D0F0D0F99
:1007F0000D0F0D0F0D0F0D0F0D0F0D0F0D0F000035
:100800000D0F0D0F0D0F0D0F0D0F0D0F0D0F0D0F08
:100810000D0F0D0F0D0F0D0F0D0F0D0F0D0FE40E22
:10082000E40EE40EE40E890F2B0F2B0F890FE40E5C
:10083000E40EE40EE40EE40E0D0FE40EE40EE40EFE
:10084000E40E890F00000000E40EE40E890F890F0A
:10085000890FE40E0D0F890F890FE40EE40E0000DE
:10086000E40E0D0F0000E40E890F890FE40EE40E74
:100870000000E40EE40EE40EE40EE40E290FE40E94
:10088000E40EE40EE40EE40EE40EE40E00000000BC
:100890000000000000000000000000000000000058
:1008A0000000000000000000000000000000000048
:1008B0000000000000000000000000000000000038
:1008C0000000000000000000000000000000000028
:1008D0000000000000000000000000000000000018
:1008E0000000000000000000000000000000000008
:1008F00000000000000000000000000000000000F8
:1009000000000000000000000000000000000000E7
:1009100000000000000000004F0F00000000000079
:1009200000000000000000000000000000000000C7
:100930000000000000000D0F0D0F0D0F0D0F0D0F2B
:100940000D0F0D0F0D0F0D0FE40E0D0F0D0F00000D
:100950000D0FE40E0D0F0D0F0D0F0D0F0D0F0D0FE1
:100960000D0F0D0F0D0FE40EE40E0D0F0D0F0D0FFB
:100970000D0F0D0F0D0F0D0F0D0F0D0F0D0FE40EC1
:10098000E40EE40EE40E0D0F0D0F0D0F0D0F0D0F05
:100990000D0F0D0F000000000D0FE40EE40EE40E2D
:1009A000E40E0D0F0D0F0D0F0D0F0D0F0D0F0D0F91
:1009B0000D0F0D0F0D0FE40EE40EE40EE40E0D0FFF
:1009C0000D0F0D0F0D0F0D0F0D0F0D0F0D0F04104F
:1009D0000D0F0410E40EE40EE40E0D0F00000000F5
:1009E0000000000000000000000000000000000007
:1009F00000000000000000000000000000000000F7
:100A000000000000000000000000000000000000E6
:100A100000000000000000000000000000000000D6
:100DC00000000000000000000000000000E2E02C35
:100DD0004D394A4BE44E282AE60001354A2D2E00B3
:100DE0000000005051524F01E11D1B061905010181
:100DF0001110363738E52B041607090A00000B0DD1
:100E00000E0F333429141A08151726271C180C1234
:100E10001331E31E1F202122010323242526272D21
:100E200000000000000000000000000000000000C2
:100E3000000000000000000000000000005E5F6095
:100E4000612E0202255A5B5C5D7F0033382D6233D0
:100E50000000315926272E81002F302F300001004D
:100E6000002D3637B480003A3B3C3D3E44453F4080
:100E70004142436600000000000000000000000046
:100E80000000000000000000000000000000000062
:100E90000000000000000000000000000000000052
:100EA0000000000000000000000000000000000042
:100EB0000000000000000000000000000000000032
:100EC0000000000000000000000000000000000022
:100ED0000000620000000049000000000000000067
:100EE00000375800000000000000000000595A5B65
:100EF00058000000000000000000005C5D5E57002C
:100F00000000000000000000005F6061560000006B
:100F100000000000000300036754550000000000BB
:100F200000000000000000000000000000000000C1
:100F300000000000000000000000000000000000B1
:100F400000000000000000000000000000000000A1
:100F50000000000000000000000000000000000091
:100F60000000000000000000000000000000000081
:100F70000000000000000000000000000000000071
:100F80000000000000000000000000000000000061
:100F90000000000000000000000000000000000051
:100FA0000000000000000000000000000000000041
:100FB0000000000000000000000000000000000031
:100FC0000000000000000000000000000000000021
:100FD0000000000000000000000000000000000011
:100FE0000000000000000000000000000000000001
:100FF00000000000000000000000000000000000F1
:1010000000000000000000000000000000000000E0
:1010100000000000000000000000000000000000D0
:1010200000000000000000000000000000000000C0
:1010300000000000000000000000000000000000B0
:1010400000000000000000000000000000000000A0
:101050000000000000000000000000000000000090
:101060000000000000000000000000000000000080
:101070000000000000000000000000000000000070
:101080000000000000000000000000000000000060
:101090000000000000000000000000000000000050
:1010A0000000000000000000000000000000000040
:1010B0000000000000000000000000000000000030
:1010C0000000000000000000000000000000000020
:1010D0000000000000000000000000000000000010
:1010E0000000000000000000000000000000000000
:1010F00000000000000000000000000000000000F0
:1011000000000000000000000000000000000000DF
:1011100000000000000100003C121200020000A9C3
:10112000113B00210000BB110900220000FD113F0E
:1011300000210100D4110900220100E4111900036B
:101140000000A51104010309048B1118020309040E
:1011500053113636034500720067006F0044006F7C
:1011600000780020006500720067006F006E006F5D
:10117000006D006900630020006B0065007900626B
:10118000006F006100720064000000180375006EBB
:101190000073007000650063006900660069006507
:1011A00000640000000403090409023B000201007E
:1011B000C0320904000001030101000921110100EE
:1011C00001223F000705810308000A09040100010C
:1011D0000300000009211101000122190007058206
:1011E0000308000A050C0901A10185031501269CCD
:1011F0000219012A9C02751095018100C0050109A0
:1012000006A10175019508050719E029E7150025D4
:10121000018102950175088103950575010508197D
:10122000012905910295017503910395067508152D
:101230000025680507190029688100C01201000215
:1012400000000020501D286000010102000101C1C2
:101250000601C106000011241FBECFEFDAE0DEBF99
:10126000CDBF11E0A0E0B1E0E6EEF4E202C00590EF
:101270000D92AA31B107D9F722E0AAE1B1E001C08D
:101280001D92AF3CB207E1F7BED00C9461120C94F2
:101290000000E0911A01E81768F02E2F281B330B8D
:1012A000C901F901EE0FFF1FE80FF91FE757FD4FC6
:1012B0008081089580E00895E0911A01E81768F0B0
:1012C0002E2F281B330BC901F901EE0FFF1FE80F6A
:1012D000F91FE757FD4F8281089580E00895982F08
:1012E00041E050E0842FFA01E050FF4F20812111AE
:1012F00014C021E02083E0911A01EF5FE0931A010E
:101300002E2F30E0F901EE0FFF1FE20FF31FE7571A
:10131000FD4F90834183628308954F5F5F4F443157
:10132000510501F780E0089520911A0191E063E0F2
:10133000A82FB0E0A050BF4F291718F420931A012E
:101340000895492F50E0FA01EE0FFF1FE40FF51F3B
:10135000E757FD4F3181381315C0969FF0011124D6
:10136000E757FD4F921310C0292F30E0F901EE0F1F
:10137000FF1FE20FF31FE757FD4F108211821C92EF
:101380002FEF290F9F5FD8CF338130833481318392
:101390009F5F3396E7CF80918702E091880224E532
:1013A000E29FF00111249F014EE0849F200D311D2A
:1013B0001124E091CA02E20FF32FF11DEE0FFF1F7F
:1013C0008091C7028823D9F0E45CF84F859194910D
:1013D000009711F0FC01099580911A01282F30E047
:1013E000F901EE0FFF1FE20FF31FE757FD4F928148
:1013F000923041F490913202992321F095CFE45537
:10140000FF4FE4CF0895E8D08CE090E090938900FE
:101410008093880090938B0080938A0090938D0036
:1014200080938C00259A269A279AF9D50FD688237F
:10143000E9F38FE790E090938900809388002FE78D
:1014400032E440E1215030404040E1F700C000006C
:1014500090938B0080938A00EFE7F2E420E1E15063
:10146000F0402040E1F700C0000090938D00809391
:101470008C003FE742E4E0E131504040E040E1F7DA
:1014800000C00000259826982798909389008093A3
:10149000880090938B0080938A0090938D008093B6
:1014A0008C00DEE0809114019091150120911601CD
:1014B0003091170130931501209314019093170177
:1014C0008093160193D0109231021092C802D090EE
:1014D000C802C0913102FDE0FD1508F5CF5FC09351
:1014E0003102C63090F3B5D5C8D78FE19EE401979D
:1014F000F1F700C000008091270280FF67C0259AA5
:101500008091270281FF64C0269A8091270282FF82
:1015100061C0279A8091270280912702C3CFED2CCA
:10152000F12CE0911601F0911701DC9FC00111240C
:10153000E80FF91FEE0DFF1D20812093C702E091F7
:101540001401F0911501E80FF91FEE0DFF1D308118
:101550003093C502231729F18C010D5C1D4F222306
:1015600031F180E096DE80938802F801EE0DFF1DD8
:1015700080831092C602C0938702D092CA02109252
:10158000C90209DF809131022091C802D89FC001B1
:101590001124855E9E4F820F911D2091C602FC0191
:1015A00020838091C8028F5F8093C80290CFF8019A
:1015B000EE0DFF1D208120938802855E9E4FFC0169
:1015C000EE0DFF1D80818093C602D5CF259898CF60
:1015D00026989BCF27989ECFB8D0811105C017D0F1
:1015E000882319F082E0089581E00895CF93DF9376
:1015F000D82FC92F73D1811108C08D2F9C2F32D0C5
:10160000811182E0DF91CF91089581E0FBCFCF93EC
:1016100036D380E453D3C82F811120C080E04ED34D
:1016200080E84CD38FEF4AD341D329D380E446D30B
:10163000C82F811113C08CE041D380E83FD38FEFD6
:101640003DD334D31CD380E439D3C82F811106C0D5
:1016500084E134D38FEF32D38FEF30D327D38C2F65
:10166000CF910895BF92CF92DF92EF92FF920F93A6
:101670001F93CF93DF930F92CDB7DEB78C01C7DFF7
:10168000B82EF12CE12CCC24C394D12CBB20D9F062
:10169000F801C8018C5A9F4F108211821282138266
:1016A0001482158216823E968E179F07A9F78B2DFE
:1016B0000F90DF91CF911F910F91FF90EF90DF90EE
:1016C000CF90BF900895DBD280E4F8D282E1F6D2C9
:1016D000C6010E2C01C0880F0A94EAF78095EED25D
:1016E000E5D2CDD280E4EAD283E1E8D2C8D281E467
:1016F000E5D2CE01019600D3D9D2498150E0F8015C
:10170000EE0DFF1D85E090E09A01082E02C0359590
:1017100027950A94E2F72095309521702083019750
:101720003E968F3F980781F78FEFE81AF80A27E077
:10173000E216F10409F0C7CFA2D280E4BFD282E161
:10174000BDD28FEFBBD2B2D2B2CFE1E6F0E080E8FB
:101750008083108256985E9824982C982598269815
:10176000279889EA8093800089E0809381007ED267
:101770003F9885E08A95F1F70000579885E08A95B3
:10178000F1F70000549885E08A95F1F7000055982C
:1017900085E08A95F1F700006E9885E08A95F1F76B
:1017A0000000479A85E08A95F1F700005F9A85E08E
:1017B0008A95F1F700005C9A85E08A95F1F70000C0
:1017C0005D9A85E08A95F1F70000769A85E08A9522
:1017D000F1F70000879885E08A95F1F70000869878
:1017E00085E08A95F1F70000859885E08A95F1F704
:1017F0000000849885E08A95F1F70000819885E0E3
:101800008A95F1F70000809885E08A95F1F700004D
:10181000209885E08A95F1F70000219885E08A9567
:10182000F1F70000229885E08A95F1F700002398EF
:1018300085E08A95F1F70000529885E08A95F1F7E6
:101840000000539885E08A95F1F700003E9885E006
:101850008A95F1F700008F9A85E08A95F1F70000EC
:101860008E9A85E08A95F1F700008D9A85E08A9539
:10187000F1F700008C9A85E08A95F1F70000899ACB
:1018800085E08A95F1F70000889A85E08A95F1F75E
:101890000000289885E08A95F1F70000299885E0F6
:1018A0008A95F1F700002A9885E08A95F1F7000003
:1018B0002B9885E08A95F1F700005A9885E08A9583
:1018C000F1F700005B9885E08A95F1F700004698F3
:1018D00085E08A95F1F7000080E00895CF93DF93CB
:1018E000FC01209A85E08A95F1F700008FB1809580
:1018F000881F8827881F87839FB181E096FB9927DF
:1019000090F99827958B9FB195FB992790F9982787
:1019100093A39FB192959170982791AB9FB19695A3
:101920009170982797AF9FB1DF01AA5BBF4F909549
:10193000917017969C931797209895E09A95F1F7D8
:101940000000219A95E09A95F1F700009FB19095DB
:10195000991F9927991F90879FB196FB992790F916
:101960009827968B9FB195FB992790F9982794A378
:101970009FB192959170982792AB9FB1EF01C05C97
:10198000DF4F96959170982798839FB190959170AD
:1019900018969C931897219895E09A95F1F7000076
:1019A000229A95E09A95F1F700009FB19095991FC2
:1019B0009927991F91879FB196FB992790F99827AE
:1019C000978B9FB195FB992790F9982795A39FB185
:1019D00092959170982793AB9FB1219696959170AF
:1019E000982798839FB19095917019969C93199719
:1019F000229895E09A95F1F70000239A95E09A9540
:101A0000F1F700009FB19095991F9927991F928730
:101A10009FB196FB992790F99827908F9FB195FBDE
:101A2000992790F9982796A39FB19295917098273E
:101A300094AB9FB1219696959170982798839FB10A
:101A4000909591701A969C931A97239895E09A9581
:101A5000F1F70000529A95E09A95F1F700009FB1D6
:101A60009095991F9927991F93879FB196FB992766
:101A700090F99827918F9FB195FB992790F9982716
:101A800097A39FB192959170982795AB9FB121969E
:101A900096959170982798839FB1909591701B9619
:101AA0009C931B97529895E09A95F1F70000539AF2
:101AB00095E09A95F1F700009FB19095991F9927AD
:101AC000991F94879FB196FB992790F99827928F39
:101AD0009FB195FB992790F9982790A79FB1929570
:101AE0009170982796AB9FB1219696959170982703
:101AF00098839FB1909591701C969C931C975398D6
:101B000095E09A95F1F700003E9A95E09A95F1F7E5
:101B100000009FB19095991F9927991F95879FB1B4
:101B200096FB992790F99827938F9FB195FB99275A
:101B300090F9982791A79FB192959170982797ABAC
:101B40009FB1EB5BFF4F96959170892780838FB192
:101B5000809581701D968C933E9885E08A95F1F76B
:101B6000000080E0DF91CF910895662309F456C00C
:101B7000E0E2E60FE830C0F5F0E0ED59FD4E90915F
:101B80002F0299C4882321F0916090932F02089529
:101B90009E7FFBCF882311F09260F7CF9D7FF5CF1A
:101BA000882311F09460F1CF9B7FEFCF882311F051
:101BB0009860EBCF977FE9CF882311F09061E5CF54
:101BC0009F7EE3CF882311F09062DFCF9F7DDDCF32
:101BD000882311F09064D9CF9F7BD7CF882311F051
:101BE0009068D3CF9F77D1CFE9E2F2E030E020E0F8
:101BF0009191882339F091110CC0275D3D4FF90177
:101C000060830895961305C0275D3D4FF90110824A
:101C100008952F5F3F4F2630310551F70895E0E2D8
:101C2000E80FE830B0F4F0E0E559FD4E90912F0256
:101C300042C490FD19C091FD17C092FD15C093FDDF
:101C400013C094FD11C095FD0FC096FD0DC097FD0A
:101C50000BC0E9E2F2E096E09E0F2191281721F0F7
:101C60009E13FBCF80E0089581E00895E9EBF0E05A
:101C700080818C7F808388E48093B800089584EA13
:101C80008093BC008091BC0087FFFCCF8091B9009D
:101C9000887F883049F08091B900887F803121F0B9
:101CA0008091B900887F089580E0089584E9809349
:101CB000BC008091BC0084FDFCCF08958093BB00E4
:101CC00084E88093BC008091BC0087FFFCCF8091AA
:101CD000B900887F883171F08091B900887F88329F
:101CE00049F08091B900887F803421F08091B9005B
:101CF000887F089580E00895FC0184EC8093BC0007
:101D00008091BC0087FFFCCF8091BB0080838091D5
:101D1000B900887F803521F08091B900887F0895CF
:101D200080E00895CF93DF93C82FD0E0C95EDD4FE8
:101D30008881FADA1882DF91CF9108951F93CF93AB
:101D4000DF9390918702E091880244E5E49F90013F
:101D500011244EE0949F200D311D1124E091CA0200
:101D6000E20FF32FF11DE453F24F1491C82FD0E08E
:101D7000C95EDD4F8881D8DA80E09EDA81508230FA
:101D800018F480E086DAD0DA60E0812FA8DA888360
:101D9000DF91CF911F91089580918702E091880291
:101DA00094E5E99FB00111249EE0899F600D711DAB
:101DB0001124E091CA02E60FF72FF11DE453F24F10
:101DC00064918091C702D1CE8091C602811103C077
:101DD00081E080933202E0CFCF9380918702E0913F
:101DE000880224E5E29FF00111249F014EE0849FC8
:101DF000200D311D1124E091CA02E20FF32FF11DD5
:101E0000E453F24FC4918C2F0ADF6C2F882319F012
:101E100080E0CF91AACE81E0FCCF81E08093C60222
:101E20008091C9028F5F8093C90233DA8093880260
:101E3000909187024091CA025EE0959F9001112423
:101E40002D5C3D4F240F311DF9018083A4CA81E030
:101E500075CF81E067CF82E071CF82E063CF83E00E
:101E60006DCF83E05FCF84E069CF84E05BCF85E016
:101E700065CF85E057CF86E061CF86E053CF87E01E
:101E80005DCF87E04FCF88E059CF88E04BCF89E026
:101E900055CF89E047CF8AE051CF8AE043CFF8940D
:101EA00081E08093E00080E28093D800E9ECF0E0EC
:101EB00010828FE19EE40197F1F700C000001DBA87
:101EC000109268001CBC10BE1FBA10927A001092CB
:101ED0006E0010926F0010927100109272001082CA
:101EE000ECEBF0E0108214B817B81AB81DB810BAAD
:101EF000108215B818B81BB81EB811BA0C94003F60
:101F0000089563E881E031DEA4D063E880E02DDE4F
:101F1000A0C061EE8091C70228DE56CF8091870273
:101F2000E091880294E5E99FB00111249EE0899F29
:101F3000600D711D1124E091CA02E60FF72FF11D0B
:101F4000E453F24F64918091C702811105C09091D2
:101F5000240291509093240208DE80912402813063
:101F600041F58091C702882369F181EE58DE8093A4
:101F7000230285EE54DE8093220261EE80E0F5DDDF
:101F800065EE80E0F2DD69E381E0EFDD62D069E3D8
:101F900080E0EBDD5ED080912302882319F061EEB2
:101FA00081E0E3DD80912202882319F065EE81E073
:101FB000DCDD8091C702882329F0809124028F5FA5
:101FC000809324020895CF9380918702E091880244
:101FD00024E5E29FF00111249F014EE0849F200D33
:101FE000311D1124E091CA02E20FF32FF11DE453D9
:101FF000F24FC4918091250297D960E08C2F6FD960
:1020000080932502CF917DCF809125028DD91092AA
:10201000250277CF8091E80080FFFCCF089581E012
:102020008093D70080EA8093D80082E189BD09B40B
:1020300000FEFDCF80E98093D8001092E00010925E
:1020400030028CE08093E200789408958091300211
:10205000089580913002811102C08FEF08958FB7EB
:10206000F89491E09093E9009091E4009E5C21E067
:102070003091E80035FD0EC08FBF8091300288237B
:1020800061F38091E400891741F38FB7F8942093AE
:10209000E900EECF90912F029093F1001092F100A1
:1020A000E9E2F2E091919093F10092E0EF32F907CA
:1020B000C9F79AE39093E800109228028FBF80E05E
:1020C00008951F921FB61F9211248F939F93EF9331
:1020D000FF938091E1001092E10083FF0FC0109206
:1020E000E90091E09093EB001092EC0092E2909363
:1020F000ED0098E09093F0001092300282FF33C020
:1021000080913002882379F180911801882359F158
:10211000809126028F5F80932602837021F581E0F3
:102120008093E9008091E80085FF1DC0809128021E
:102130008F5F8093280290911801891314C0109228
:10214000280280912F028093F1001092F100E9E2C1
:10215000F2E081918093F10082E0EF32F807C9F755
:102160008AE38093E800FF91EF919F918F911F90F8
:102170001FBE1F9018951F920F920FB60F92112439
:10218000EF92FF920F931F932F933F934F935F9381
:102190006F937F938F939F93AF93BF93CF93DF936F
:1021A000EF93FF931092E9008091E80083FF71C0E4
:1021B000D091F100C091F1000091F1008091F10007
:1021C000182FE090F1008091F100F82E2091F1009D
:1021D0003091F10082EF8093E800C63009F065C0CD
:1021E00084E191E143E551E1FC01659174910617A9
:1021F000170709F049C0FC01329665917491E61603
:10220000F70609F041C0FC013496459154910696B9
:10221000FC0184912F3F310519F010F02FEF30E0D1
:10222000281708F4822F3EEF9091E800292F25709F
:10223000D9F392FD12C0982F813208F090E2FA0192
:10224000292F21112CC0490F511D282F291B3093F4
:10225000E800891322C0803200F5FF91EF91DF91F1
:10226000CF91BF91AF919F918F917F916F915F912E
:102270004F913F912F911F910F91FF90EF900F90F1
:102280000FBE0F901F90189507964817590709F031
:10229000ABCF81E28093EB00E0CF822FC5CF64917A
:1022A0006093F10021503196CCCFC53041F48EEFD0
:1022B0008093E800AFDE00680093E300CECFC93022
:1022C00049F5D1116AC0009330028EEF8093E80087
:1022D00021E08EE492E12093E900AC014F5F5F4F73
:1022E000FC0134913093EB00332391F0FA014491D7
:1022F0004093EC003196E4910396E093ED002F5F5C
:10230000253049F78EE18093EA001092EA00A5CFCC
:10231000CA01F5CFC83049F4D03809F03EC07ADEA2
:10232000809130028093F10012C0C11114C072DE9E
:10233000D23849F4E092E900C091EB00C5FBCC270C
:10234000C0F91092E900C093F1001092F1008EEFF5
:102350008093E80082CF8C2F8D7F8130F1F4D230D2
:10236000E1F4012B09F095CF2E2D2F778FEF820FFF
:10237000843008F08ECF8EEF8093E8002093E90040
:10238000C33009F486CF89E18093EB0081E090E0CF
:1023900001C0880F2A95EAF7B6CFEF2809F079CF68
:1023A000D13A01F5C13089F435DE80912F02809356
:1023B000F1001092F100E9E2F2E081918093F100E6
:1023C00082E0EF32F807C9F7C2CFC23021F422DE33
:1023D00080911801A7CFC33009F05BCF1BDE80913D
:1023E0001901A0CFD13209F054CFC93061F48091E6
:1023F000E80082FFFCCF8091F100809327028BEFF1
:102400008093E800A4CFCA3029F4109318011092E9
:1024100028029DCFCB3009F03CCF0093190197CF14
:1024200090913002911102C08FEF08959FB7F894F8
:1024300022E02093E9002091E4002E5C32E04091FC
:10244000E80045FD0EC09FBF90913002992361F3D3
:102450009091E400921741F39FB7F8943093E9000C
:10246000EECF8093F1006093F1007093F1008AE366
:102470008093E8009FBF80E008956091CB02709147
:10248000CC028091CD029091CE0220E068177907AE
:1024900081F083E0C5DF282F082E000C330B81115B
:1024A00008C08091CB029091CC029093CE02809391
:1024B000CD02822F0895EE0FFF1F0590F491E02DBD
:1024C0000994F894FFCFC20DCA0DD00DD60DDC0DC6
:1024D000E20DE80DEE0D190E1B0E1D0E1F0E210E46
:0624E000230E250E270E5D
:1024E60001000000000000000000000000000000E5
:0A24F600000000006F01C3017D012A
:00000001FF
