:100000000C943B090C9457090C9457090C9457090C
:100010000C9457090C9457090C9457090C945709E0
:100020000C9457090C9457090C94A8100C940411C3
:100030000C9457090C9457090C9457090C945709C0
:100040000C9457090C9457090C9457090C945709B0
:100050000C9457090C9457090C9457090C945709A0
:100060000C9457090C9457090C9457090C94570990
:100070000C9457090C9457090C9457090C94570980
:100080000C9457090C9457090C9457090C94570970
:100090000C9457090C9457090C9457090C94570960
:1000A0000C9457090C9457090C9457094B0E530E96
:1000B000590E5F0E650E6B0E710E770EA60EA80E12
:1000C000AA0EAC0EAE0EB00EB20EB40E0000150F9E
:1000D0005E0F150F150F150F150F0000150F150FDB
:1000E000150F150F150F0000150F150F150F150F14
:1000F000150F0000000000000000150F150F150F70
:10010000150F8C0FA60F150F150F150F150F150FC7
:10011000150F5E0F150F150F150F150F150FA60FE5
:10012000150F150F150F150F150F150F00000000F7
:10013000150F150F150F150F150F150F150F150F9F
:10014000150F150F150F150F8C0F8C0F150F150FA1
:10015000150F150F150F910F150F150F150F150F03
:10016000150F150F150F0000150F150F150F150F93
:10017000150F150F0000430F430F430F430FA10F3F
:100180009C0F0000430F430F430F430F430F00002A
:10019000430F430F430F430F430F430F430F430FCF
:1001A000430F150F150F150F150F430F430F150FA5
:1001B0008C0F8C0F8C0F150F620F620F8C0F150FA9
:1001C0008C0F8C0F150F150F430F8C0F8C0F8C0F8E
:1001D0008C0F8C0F00000000150F150F150F150F59
:1001E0008C0F150F430F150F150F150F8C0F8C0F5C
:1001F000150F430F00008C0F150F8C0F150F150FE7
:100200000000150F150F150F150F150F150F150FF2
:10021000150F150F150F150F150F150F0000000006
:1002200000000000000000000000000000000000CE
:1002300000000000000000000000000000000000BE
:1002400000000000000000000000000000000000AE
:10025000000000000000000000000000000000009E
:10026000000000000000000000000000000000008E
:10027000000000000000000000000000000000007E
:10028000000000000000000000000000000000006E
:10029000000000000000000000000000000000005E
:1002A000000000000000000000000000000000004E
:1002B000000000000000000000000000000000003E
:1002C000000000000000430F430F430F430F430F94
:1002D000430F430F430F430F150F430F430F00000E
:1002E000430F150F430F430F430F430F430F430FAC
:1002F000430F430F430F150F150F430F430F430FCA
:10030000430F430F430F430F430F430F430F150F8B
:10031000150F150F150F430F430F430F430F430FD7
:10032000430F430F00000000430F150F150F150F6B
:10033000150F430F430F430F430F430F430F430F5B
:10034000430F430F430F150F150F150F150F430FD5
:10035000430F430F430F430F430F430F430F00005F
:10036000430F0000150F150F150F430F000000007D
:10037000000000000000600F620F740F760F000095
:10038000000000000000000000000000000000006D
:1003900000001F100000000000000000000000002E
:1003A0000000000000000000000000005C0F5E0F75
:1003B00000000000000000000000700F720F191014
:1003C00000000000430F800F820F000000000000BB
:1003D000000000006C0F6E0FFA0F000000001D0FF0
:1003E0007C0F7E0F0000000000000000680F6A0F05
:1003F000A60F000000000000150F780F7A0F000014
:10040000000000000000640F660F00000000000004
:1004100000000000000000000000000000000000DC
:1004200000000000000000000000000000000000CC
:1004300000000000000000000000000000000000BC
:1004400000000000000000000000000000000000AC
:100750000000000000000000000000000000150F75
:100760005C0F150F150F150F150F5C0F150F150FDB
:10077000150F150F150F0000150F150F150F150F7D
:10078000150F0000000000000000150F150F150FD9
:10079000150F8C0FA60F150F150F150F150F150F31
:1007A000150F5C0F150F150F150F150F150FA60F51
:1007B000150F150F150F150F150F150F0000000061
:1007C000150F150F150F150F150F150F150F150F09
:1007D000150F150F150F150F8C0F8C0F150F150F0B
:1007E000150F150F150F910F150F150F150F150F6D
:1007F000150F150F150FFA0F150F150F150F150FF4
:10080000150F150F0000430F430F430F430FA10FA8
:100810009C0F5E0F430F430F430F430F430F000026
:10082000430F430F430F430F430F430F430F430F38
:10083000430F150F150F150F150F430F430F150F0E
:100840008C0F8C0F8C0F150F600F600F8C0F150F16
:100850008C0F8C0F150F150F430F8C0F8C0F8C0FF7
:100860008C0F8C0F00000000150F150F150F150FC2
:100870008C0F150F430F150F150F150F8C0F8C0FC5
:10088000150F430F00008C0F150F8C0F150F150F50
:100890000000150F150F150F150F150F150F150F5C
:1008A000150F150F150F150F150F150F0000000070
:1008B0000000000000000000000000000000000038
:1008C0000000000000000000000000000000000028
:1008D0000000000000000000000000000000000018
:1008E0000000000000000000000000000000000008
:1008F00000000000000000000000000000000000F8
:1009000000000000000000000000000000000000E7
:1009100000000000000000000000000000000000D7
:1009200000000000000000000000000000000000C7
:1009300000000000000000001F1000000000000088
:1009400000000000000000000000000000000000A7
:10095000000000000000430F430F430F430F430FFD
:10096000430F430F430F430F150F430F430F000077
:10097000430F150F430F430F430F430F430F430F15
:10098000430F430F430F150F150F430F430F430F33
:10099000430F430F430F430F430F430F430F150FF5
:1009A000150F150F150F430F430F430F430F430F41
:1009B000430F430F00000000430F150F150F150FD5
:1009C000150F430F430F430F430F430F430F430FC5
:1009D000430F430F430F150F150F150F150F430F3F
:1009E000430F430F430F430F430F430F430F1910A0
:1009F000430F1910150F150F150F430F00000000BE
:100A000000000000000000000000000000000000E6
:100A100000000000000000000000000000000000D6
:100A200000000000000000000000000000000000C6
:100A300000000000000000000000000000000000B6
:100DE00000000000000000000000000000E0012CF6
:100DF000E24CE3014C4E282A4C004A4E4B4DE20097
:100E00000000005051524F43E11D1B0619052E01F1
:100E10000E10363738E52B041516170700000B1196
:100E2000080C123431141A09130A26250D0F181C48
:100E30002D33291E1F202122010323242526272D9F
:100E400000000000002B2B0000000000000000004C
:100E5000000000000000004A4E4B4D0000342431D9
:100E6000343402022D2D36375D7F001E24252627BF
:100E700000000B0D0E0F2E8100352F302F3001009A
:100E800000362D37B480003A3B3C3D3E44453F4060
:100E90004142436600000000000000000000000026
:100EA0000000000000000000000000000000000042
:100EB0000000000000000000000000000000000032
:100EC0000000000000000000000000000000000022
:100ED0000000000000000000000000000000000012
:100EE0000000000000000000000000000000000002
:100EF0000000620000000049000000000000000047
:100F000000375800000000000000000000595A5B44
:100F100058000000000000000000005C5D5E57000B
:100F20000000000000000000005F6061560000004B
:100F3000000000000003000367545500000000009B
:100F400000000000000000000000000000000000A1
:100F50000000000000000000000000000000000091
:100F60000000000000000000000000000000000081
:100F70000000000000000000000000000000000071
:100F80000000000000000000000000000000000061
:100F90000000000000000000000000000000000051
:100FA0000000000000000000000000000000000041
:100FB0000000000000000000000000000000000031
:100FC0000000000000000000000000000000000021
:100FD0000000000000000000000000000000000011
:100FE0000000000000000000000000000000000001
:100FF00000000000000000000000000000000000F1
:1010000000000000000000000000000000000000E0
:1010100000000000000000000000000000000000D0
:1010200000000000000000000000000000000000C0
:1010300000000000000000000000000000000000B0
:1010400000000000000000000000000000000000A0
:101050000000000000000000000000000000000090
:101060000000000000000000000000000000000080
:101070000000000000000000000000000000000070
:101080000000000000000000000000000000000060
:101090000000000000000000000000000000000050
:1010A0000000000000000000000000000000000040
:1010B0000000000000000000000000000000000030
:1010C0000000000000000000000000000000000020
:1010D0000000000000000000000000000000000010
:1010E0000000000000000000000000000000000000
:1010F00000000000000000000000000000000000F0
:1011000000000000000000000000000000000000DF
:1011100000000000000000000000000000000000CF
:1011200000000000000000000000000000000000BF
:1011300000000000000100005C121200020000C963
:10114000113B00210000DB1109002200001D123FAD
:1011500000210100F411090022010004121900030A
:101160000000C5110401030904AB111802030904AE
:1011700073113636034500720067006F0044006F3C
:1011800000780020006500720067006F006E006F3D
:10119000006D006900630020006B0065007900624B
:1011A000006F006100720064000000180375006E9B
:1011B00000730070006500630069006600690065E7
:1011C00000640000000403090409023B000201005E
:1011D000C0320904000001030101000921110100CE
:1011E00001223F000705810308000A0904010001EC
:1011F00003000000092111010001221900070582E6
:101200000308000A050C0901A10185031501269CAC
:101210000219012A9C02751095018100C00501097F
:1012200006A10175019508050719E029E7150025B4
:10123000018102950175088103950575010508195D
:10124000012905910295017503910395067508150D
:101250000025680507190029688100C012010002F5
:1012600000000020501D286000010102000101C1A2
:101270000601C106000011241FBECFEFDAE0DEBF79
:10128000CDBF11E0A0E0B1E0E4E6F5E202C00590D8
:101290000D92AA31B107D9F712E0AAE1B1E001C07D
:1012A0001D92AF3CB107E1F7DBD00C94B0120C9467
:1012B000000020911A01281778F030E0A901481B9E
:1012C0005109CA01FA01EE0FFF1F8E0F9F1FFC018B
:1012D000E757FD4F8081089580E0089520911A011D
:1012E000281778F030E0A901481B5109CA01FA011A
:1012F000EE0FFF1F8E0F9F1FFC01E757FD4F8281EE
:10130000089580E0089521E030E0F901E050FF4FBA
:101310009081911114C091E09083E0911A01EF5FE8
:10132000E0931A01F0E0AF01440F551FE40FF51FE1
:10133000E757FD4F808321836283822F08952F5FBB
:101340003F4F2431310509F780E00895CF93DF93B3
:1013500040911A0191E0C82FD0E0C050DF4F4917EB
:10136000B8F1292F30E0F901EE0FFF1F2E0F3F1FBC
:10137000F901E757FD4F2181281328C0292F30E0BC
:10138000F9019417B9F03196BF01660F771FE60F88
:10139000F71FE757FD4F5081D901AA0FBB1F2A0F36
:1013A0003B1FD901A757BD4F5C93218111962C9308
:1013B0009F5FE4CFEE0FFF1F2E0F3F1FF901E7578E
:1013C000FD4F1082118218824FEF490F9F5FC7CFE8
:1013D00040931A01DF91CF9108952091C702809127
:1013E000CA0290918802E0918702222381F02EE0C8
:1013F000E29FF001112424E5929FE00DF11D1124DC
:10140000E80FF11DEE0FFF1FE45AF84F0FC02EE05A
:10141000E29FF001112424E5929FE00DF11D1124BB
:10142000E80FF11DEE0FFF1FE453FF4F85919491DC
:10143000009711F0FC01099580911A01282F30E0E6
:10144000F901EE0FFF1F2E0F3F1FF901E757FD4F68
:101450009281923021F490913202911177CF0895C8
:10146000E1D08CE090E09093890080938800909385
:101470008B0080938A0090938D0080938C00259A36
:10148000269A279A13D629D68823E9F38FE790E086
:1014900090938900809388002FE732E440E1215047
:1014A00030404040E1F700C0000090938B008093F3
:1014B0008A005FE7E2E4F0E15150E040F040E1F7FC
:1014C00000C0000090938D0080938C002FE732E4E1
:1014D00040E1215030404040E1F700C00000259835
:1014E00026982798909389008093880090938B008A
:1014F00080938A0090938D0080938C001EE08091F1
:10150000140190911501209116013091170130932B
:1015100015012093140190931701809316018DD02B
:101520001092310280913102863008F059C0109239
:10153000C802D091C802C0913102DE3008F04CC020
:10154000E0911601F09117011C9FC00111248D0F2D
:10155000911DE80FF91F20812093C702E09114012B
:10156000F0911501E80FF91F30813093C502231760
:1015700069F1FC01ED5CFD4F7F01222349F080E021
:1015800098DE80938802F70180831092C60209C01A
:10159000208120938802FC01E55EFE4F80818093CC
:1015A000C602C0938702D093CA021092C90215DF07
:1015B0008091C802E09131021E9FF0011124E80FD2
:1015C000F11DE55EFE4F8091C60280838091C802C6
:1015D0008F5F8093C802ADCFCF5FC0933102A2CF9F
:1015E0007FD59AD78FE19EE40197F1F700C0000004
:1015F0008091270280FF02C0259A01C02598809122
:10160000270281FF02C0269A01C0269880912702F6
:1016100082FF02C0279A01C02798809127028091FB
:1016200027026DCF1AD0811104C027D2811103C0C7
:10163000089581E0089582E00895CF93DF93EC014F
:10164000D5D0811106C0CE0143D2882319F082E0A3
:1016500001C081E0DF91CF910895E1E6F0E080E8FC
:101660008083108256985E9824982C982598269806
:10167000279889EA8093800089E0809381009ED238
:101680003F9885E08A95F1F70000579885E08A95A4
:10169000F1F70000549885E08A95F1F7000055981D
:1016A00085E08A95F1F700006E9885E08A95F1F75C
:1016B0000000479A85E08A95F1F700005F9A85E07F
:1016C0008A95F1F700005C9A85E08A95F1F70000B1
:1016D0005D9A85E08A95F1F70000769A85E08A9513
:1016E000F1F70000879885E08A95F1F70000869869
:1016F00085E08A95F1F70000859885E08A95F1F7F5
:101700000000849885E08A95F1F70000819885E0D3
:101710008A95F1F70000809885E08A95F1F700003E
:10172000209885E08A95F1F70000219885E08A9558
:10173000F1F70000229885E08A95F1F700002398E0
:1017400085E08A95F1F70000529885E08A95F1F7D7
:101750000000539885E08A95F1F700003E9885E0F7
:101760008A95F1F700008F9A85E08A95F1F70000DD
:101770008E9A85E08A95F1F700008D9A85E08A952A
:10178000F1F700008C9A85E08A95F1F70000899ABC
:1017900085E08A95F1F70000889A85E08A95F1F74F
:1017A0000000289885E08A95F1F70000299885E0E7
:1017B0008A95F1F700002A9885E08A95F1F70000F4
:1017C0002B9885E08A95F1F700005A9885E08A9574
:1017D000F1F700005B9885E08A95F1F700004698E4
:1017E00085E08A95F1F7000080E00895CF93DF93BC
:1017F000FC01209A85E08A95F1F700008FB1809571
:10180000881F8827881F87839FB181E096FB9927CF
:1018100090F99827958B9FB195FB992790F9982778
:1018200093A39FB192959170982791AB9FB1969594
:101830009170982797AF9FB1DF01AA5BBF4F91705E
:10184000982717969C931797209895E09A95F1F70B
:101850000000219A95E09A95F1F700009FB19095CC
:10186000991F9927991F90879FB196FB992790F907
:101870009827968B9FB195FB992790F9982794A369
:101880009FB192959170982792AB9FB1EF01C05C88
:10189000DF4F96959170982798839FB19170982704
:1018A00018969C931897219895E09A95F1F7000067
:1018B000229A95E09A95F1F700009FB19095991FB3
:1018C0009927991F91879FB196FB992790F998279F
:1018D000978B9FB195FB992790F9982795A39FB176
:1018E00092959170982793AB9FB1219696959170A0
:1018F000982798839FB19170982719969C93199770
:10190000229895E09A95F1F70000239A95E09A9530
:10191000F1F700009FB19095991F9927991F928721
:101920009FB196FB992790F99827908F9FB195FBCF
:10193000992790F9982796A39FB19295917098272F
:1019400094AB9FB1219696959170982798839FB1FB
:10195000917098271A969C931A97239895E09A95D8
:10196000F1F70000529A95E09A95F1F700009FB1C7
:101970009095991F9927991F93879FB196FB992757
:1019800090F99827918F9FB195FB992790F9982707
:1019900097A39FB192959170982795AB9FB121968F
:1019A00096959170982798839FB1917098271B9670
:1019B0009C931B97529895E09A95F1F70000539AE3
:1019C00095E09A95F1F700009FB19095991F99279E
:1019D000991F94879FB196FB992790F99827928F2A
:1019E0009FB195FB992790F9982790A79FB1929561
:1019F0009170982796AB9FB12196969591709827F4
:101A000098839FB1917098271C969C931C9753982C
:101A100095E09A95F1F700003E9A95E09A95F1F7D6
:101A200000009FB19095991F9927991F95879FB1A5
:101A300096FB992790F99827938F9FB195FB99274B
:101A400090F9982791A79FB192959170982797AB9D
:101A50009FB1EB5BFF4F96959170982790839FB154
:101A6000917089271D968C933E9885E08A95F1F7B1
:101A7000000080E0DF91CF910895CF93A8D080E45B
:101A8000C5D0C82F811120C080E0C0D080E8BED072
:101A90008FEFBCD0B3D09BD080E4B8D0C82F8111D9
:101AA00013C08CE0B3D080E8B1D08FEFAFD0A6D018
:101AB0008ED080E4ABD0C82F811106C084E1A6D0BF
:101AC0008FEFA4D08FEFA2D099D08C2FCF91089513
:101AD000BF92CF92DF92EF92FF920F931F93CF931B
:101AE000DF931F92CDB7DEB78C01C7DFB82E8823F6
:101AF00079F086E09801295F3F4FF8011192E217D3
:101B0000F307E1F78150025F1F4F8111F3CF4AC005
:101B1000C12CD12CEE24E394F12C59D080E476D062
:101B200082E174D0C7010C2C01C0880F0A94EAF737
:101B300080956CD063D04BD080E468D083E166D0D0
:101B400046D081E463D0CE0101967ED057D0898102
:101B500090E0F801EC0DFD1D45E050E09C01042EE5
:101B600002C0359527950A94E2F72170332761E08A
:101B7000262721702083415051093E964F3F2FEF79
:101B8000520761F76FEFC61AD60A87E0C816D1046C
:101B900009F0C3CF1CD080E439D082E137D08FEF79
:101BA00035D02CD08B2D0F90DF91CF911F910F91BD
:101BB000FF90EF90DF90CF90BF900895E9EBF0E0B9
:101BC00080818C7F808388E48093B800089584EAC4
:101BD0008093BC008091BC0087FFFCCF8091B9004E
:101BE000887F883049F08091B900887F803121F06A
:101BF0008091B900887F089580E0089584E98093FA
:101C0000BC008091BC0084FDFCCF08958093BB0094
:101C100084E88093BC008091BC0087FFFCCF80915A
:101C2000B900887F883171F08091B900887F88324F
:101C300049F08091B900887F803421F08091B9000B
:101C4000887F089580E0089524EC2093BC002091C3
:101C5000BC0027FFFCCF2091BB00FC0120838091BA
:101C6000B900887F803521F08091B900887F089580
:101C700080E00895962F662309F45AC0462F50E05D
:101C8000FA01E05EF109E830F105B8F5EA5AFF4FD4
:101C900090912F025FC4882311F0916001C09E7F54
:101CA00090932F020895882311F09260F9CF9D7FC1
:101CB000F7CF882311F09460F3CF9B7FF1CF882377
:101CC00011F09860EDCF977FEBCF882311F09061F2
:101CD000E7CF9F7EE5CF882311F09062E1CF9F7D13
:101CE000DFCF882311F09064DBCF9F7BD9CF88238F
:101CF00011F09068D5CF9F77D3CFE9E2F2E020E0F2
:101D000030E04081882339F041110CC0F901E75DD2
:101D1000FD4F90830895491305C0F901E75DFD4F1C
:101D2000108208952F5F3F4F31962630310549F7D5
:101D30000895482F50E0FA01E05EF109E830F1051E
:101D4000A8F4E25AFF4F90912F0204C490FD19C0ED
:101D500091FD17C092FD15C093FD13C094FD11C0F5
:101D600095FD0FC096FD0DC097FD0BC0E9E2F2E0B6
:101D700096E09E0F2191281721F09E13FBCF80E063
:101D8000089581E00895CF93DF93C82FD0E0C95E16
:101D9000DD4F8881DBDA1882DF91CF9108950F93B0
:101DA0001F93CF939091CA0220918802E0918702FD
:101DB0003EE0E39FF001112434E5239FE00DF11D87
:101DC0001124E90FF11DE451F24FC491082F10E0E6
:101DD000095E1D4FF8018081B9DA80E07FDA815019
:101DE000823018F480E065DAB1DA60E08C2F8BDAAB
:101DF000F8018083CF911F910F9108958091CA02BD
:101E000090918802E09187022EE0E29FF001112478
:101E100024E5929FE00DF11D1124E80FF11DE4511E
:101E2000F24F64918091C70225CF8091C602811143
:101E300003C081E080933202E1CFCF93DF931F9202
:101E4000CDB7DEB78091CA0290918802E0918702F7
:101E50002EE0E29FF001112424E5929FE00DF11D98
:101E60001124E80FF11DE451F24F6491862F69832C
:101E700060DF6981882311F080E001C081E00F906C
:101E8000DF91CF91F7CE81E08093C6028091C902A5
:101E90008F5F8093C9020DDA809388029091CA0205
:101EA000E09187022EE0E29FF0011124E90FF11D7D
:101EB000ED5CFD4F808391CA81E071CF81E063CFFB
:101EC00082E06DCF82E05FCF83E069CF83E05BCFBC
:101ED00084E065CF84E057CF85E061CF85E053CFC4
:101EE00086E05DCF86E04FCF87E059CF87E04BCFCC
:101EF00088E055CF88E047CF89E051CF89E043CFD4
:101F00008AE04DCF8AE03FCF63E881E0B3DEE8D0DE
:101F100063E880E0AFDEE4C061EE8091C702AADE34
:101F200084CF85EE06DF65EE811103C08091C70284
:101F300001C080E09FDE79CF66EE8091C7029ADE15
:101F400074CF60EE8091C70295DE6FCF8091CA0298
:101F500090918802E09187022EE0E29FF001112427
:101F600024E5929FE00DF11D1124E80FF11DE451CD
:101F7000F24F64918091C702811105C090912402B3
:101F800091509093240276DE80912402813041F5B5
:101F90008091C702882321F181EECBDE809323025A
:101FA00085EEC7DE8093220261EE80E063DE65EE9F
:101FB00080E060DE69E381E05DDE92D069E380E08D
:101FC00059DE8ED080912302882319F061EE81E0E2
:101FD00051DE80912202882319F065EE81E04ADE0D
:101FE0008091C702882329F0809124028F5F80931B
:101FF00024020895CF938091CA0290918802E091C3
:1020000087022EE0E29FF001112424E5929FE00D6B
:10201000F11D1124E80FF11DE451F24FC49180919C
:10202000250294D960E08C2F6ED980932502CF9140
:102030006BCF809125028AD91092250265CFF89442
:1020400081E08093E00080E28093D800E9ECF0E04A
:1020500010828FE19EE40197F1F700C000001DBAE5
:10206000109268001CBC10BE1FBA10927A00109229
:102070006E0010926F001092710010927200108228
:10208000ECEBF0E0108214B817B81AB81DB810BA0B
:10209000108215B818B81BB81EB811BA0C94003FBE
:1020A00008958091E80080FFFCCF089581E080933F
:1020B000D70080EA8093D80082E189BD09B400FE90
:1020C000FDCF80E98093D8001092E000109230029A
:1020D0008CE08093E2007894089580913002089516
:1020E00080913002811102C08FEF08958FB7F8946C
:1020F00091E09093E9009091E4009E5C21E03091A2
:10210000E80035FD0EC08FBF80913002882361F357
:102110008091E400891741F38FB7F8942093E90088
:10212000EECF90912F029093F1001092F100E9E22E
:10213000F2E096E09E0F21912093F1009E13FBCFD9
:102140009AE39093E800109228028FBF80E00895F0
:102150001F920F920FB60F9211248F939F93EF93BC
:10216000FF938091E1001092E10083FF0FC0109275
:10217000E90091E09093EB001092EC0092E29093D2
:10218000ED0098E09093F0001092300282FF33C08F
:1021900080913002882379F180911801882359F1C8
:1021A000809126028F5F80932602837021F581E063
:1021B0008093E9008091E80085FF1DC0809128028E
:1021C0008F5F8093280290911801891314C0109298
:1021D000280280912F028093F1001092F100E9E231
:1021E000F2E086E08E0F91919093F1008E13FBCF79
:1021F0008AE38093E800FF91EF919F918F910F9078
:102200000FBE0F901F9018951F920F920FB60F924E
:102210001124EF92FF920F931F932F933F934F93AD
:102220005F936F937F938F939F93AF93BF93EF933E
:10223000FF93CF93DF931F92CDB7DEB71092E900E3
:102240008091E80083FF20C19091F1008091F1001E
:102250003091F1002091F100E32EF12CF22A00914F
:10226000F1002091F10010E0122B2091F10060911B
:10227000F10032EF3093E800863009F046C039E0D3
:1022800084E391E1FC01459154914E155F0539F4C9
:10229000FC013296459154914017510721F0079661
:1022A000315081F7F1C0FC01349645915491FC0105
:1022B0003696849130E0362B2F3F310519F010F01F
:1022C0002FEF30E0281708F4822F3EEF9091E800BE
:1022D000292F2570D9F392FDDAC0982F813208F0AA
:1022E00090E2FA01292F222331F064916093F100EA
:1022F00021503196F8CF490F511D891B3093E800CA
:102300008111E4CF903211F3C2C0853049F48EEFD1
:102310008093E800C6DE8E2D80688093E300B7C00E
:10232000893039F591116BC0E09230028EEF8093C5
:10233000E80041E08EE692E14093E9009C012F5FC6
:102340003F4FFC0154915093EB00552359F0F90194
:1023500024912093EC009C012D5F3F4F3196849196
:102360008093ED004F5F453011F0C901E5CF8EE15C
:1023700041C0883039F4903809F041C092DE809134
:10238000300260C0811115C099838BDE998192382B
:1023900051F40093E9008091EB0085FB882780F9D8
:1023A0001092E90001C080E08093F1001092F100EA
:1023B00067C0282F2D7F213011F5923001F5EF28CD
:1023C00009F062C00F779FEF900F943008F05CC067
:1023D0009EEF9093E8000093E900833009F454C025
:1023E00089E18093EB0081E090E0002E01C0880F2E
:1023F0000A94EAF78093EA001092EA0048C0012BA1
:1024000009F042C0913A09F5813089F44ADE8091A1
:102410002F028093F1001092F100E9E2F2E086E0F1
:102420008E0F91919093F1008E13FBCF29C08230D3
:1024300021F437DE8091180105C0833029F531DEA3
:10244000809119018093F1001BC09132E9F4893029
:1024500061F48091E80082FFFCCF8091F1008093CD
:1024600027028BEF8093E8000BC08A3029F4F092AA
:1024700018011092280204C08B3031F4E092190147
:102480008EEF8093E80003C081E28093EB000F9011
:10249000DF91CF91FF91EF91BF91AF919F918F917C
:1024A0007F916F915F914F913F912F911F910F916C
:1024B000FF90EF900F900FBE0F901F901895909186
:1024C0003002911102C08FEF08959FB7F89422E077
:1024D0002093E9002091E4002E5C32E04091E80076
:1024E00045FD0EC09FBF90913002992361F39091FA
:1024F000E400921741F39FB7F8943093E900EECFD0
:102500008093F1006093F1007093F1008AE380936F
:10251000E8009FBF80E008956091CB027091CC02EB
:102520008091CD029091CE026817790781F083E007
:10253000C6DF992787FD9095009759F42091CB022B
:102540003091CC023093CE022093CD02089580E0EA
:1025500090E00895EE0FFF1F0590F491E02D09948F
:04256000F894FFCF1D
:102564000100000000000000000000000000000066
:0A257400000000006F01C3017D01AB
:00000001FF
